{
  "contractName": "Supplychain",
  "abi": [
    {
      "inputs": [],
      "stateMutability": "nonpayable",
      "type": "constructor"
    },
    {
      "inputs": [],
      "name": "AccessControlBadConfirmation",
      "type": "error"
    },
    {
      "inputs": [
        {
          "internalType": "address",
          "name": "account",
          "type": "address"
        },
        {
          "internalType": "bytes32",
          "name": "neededRole",
          "type": "bytes32"
        }
      ],
      "name": "AccessControlUnauthorizedAccount",
      "type": "error"
    },
    {
      "inputs": [
        {
          "internalType": "address",
          "name": "owner",
          "type": "address"
        }
      ],
      "name": "OwnableInvalidOwner",
      "type": "error"
    },
    {
      "inputs": [
        {
          "internalType": "address",
          "name": "account",
          "type": "address"
        }
      ],
      "name": "OwnableUnauthorizedAccount",
      "type": "error"
    },
    {
      "anonymous": false,
      "inputs": [
        {
          "indexed": true,
          "internalType": "uint256",
          "name": "orderId",
          "type": "uint256"
        }
      ],
      "name": "DeliveryConfirmed",
      "type": "event"
    },
    {
      "anonymous": false,
      "inputs": [
        {
          "indexed": true,
          "internalType": "uint256",
          "name": "orderId",
          "type": "uint256"
        },
        {
          "indexed": false,
          "internalType": "uint256[]",
          "name": "earTagNumbers",
          "type": "uint256[]"
        }
      ],
      "name": "LivestockDelivered",
      "type": "event"
    },
    {
      "anonymous": false,
      "inputs": [
        {
          "indexed": true,
          "internalType": "uint256",
          "name": "orderId",
          "type": "uint256"
        },
        {
          "indexed": false,
          "internalType": "uint256",
          "name": "quantityPickedUp",
          "type": "uint256"
        }
      ],
      "name": "LivestockPickedUp",
      "type": "event"
    },
    {
      "anonymous": false,
      "inputs": [
        {
          "indexed": true,
          "internalType": "uint256",
          "name": "orderId",
          "type": "uint256"
        }
      ],
      "name": "OrderCanceled",
      "type": "event"
    },
    {
      "anonymous": false,
      "inputs": [
        {
          "indexed": true,
          "internalType": "uint256",
          "name": "orderId",
          "type": "uint256"
        }
      ],
      "name": "OrderConfirmed",
      "type": "event"
    },
    {
      "anonymous": false,
      "inputs": [
        {
          "indexed": true,
          "internalType": "uint256",
          "name": "orderId",
          "type": "uint256"
        },
        {
          "indexed": true,
          "internalType": "address",
          "name": "buyer",
          "type": "address"
        },
        {
          "indexed": false,
          "internalType": "uint256",
          "name": "amount",
          "type": "uint256"
        }
      ],
      "name": "OrderPlaced",
      "type": "event"
    },
    {
      "anonymous": false,
      "inputs": [
        {
          "indexed": true,
          "internalType": "address",
          "name": "previousOwner",
          "type": "address"
        },
        {
          "indexed": true,
          "internalType": "address",
          "name": "newOwner",
          "type": "address"
        }
      ],
      "name": "OwnershipTransferred",
      "type": "event"
    },
    {
      "anonymous": false,
      "inputs": [
        {
          "indexed": true,
          "internalType": "uint256",
          "name": "orderId",
          "type": "uint256"
        },
        {
          "indexed": false,
          "internalType": "uint256",
          "name": "amount",
          "type": "uint256"
        }
      ],
      "name": "PaymentMade",
      "type": "event"
    },
    {
      "anonymous": false,
      "inputs": [
        {
          "indexed": true,
          "internalType": "uint256",
          "name": "herderId",
          "type": "uint256"
        },
        {
          "indexed": false,
          "internalType": "uint256",
          "name": "grade",
          "type": "uint256"
        }
      ],
      "name": "RegisteredHerder",
      "type": "event"
    },
    {
      "anonymous": false,
      "inputs": [
        {
          "indexed": true,
          "internalType": "bytes32",
          "name": "role",
          "type": "bytes32"
        },
        {
          "indexed": true,
          "internalType": "bytes32",
          "name": "previousAdminRole",
          "type": "bytes32"
        },
        {
          "indexed": true,
          "internalType": "bytes32",
          "name": "newAdminRole",
          "type": "bytes32"
        }
      ],
      "name": "RoleAdminChanged",
      "type": "event"
    },
    {
      "anonymous": false,
      "inputs": [
        {
          "indexed": true,
          "internalType": "bytes32",
          "name": "role",
          "type": "bytes32"
        },
        {
          "indexed": true,
          "internalType": "address",
          "name": "account",
          "type": "address"
        },
        {
          "indexed": true,
          "internalType": "address",
          "name": "sender",
          "type": "address"
        }
      ],
      "name": "RoleGranted",
      "type": "event"
    },
    {
      "anonymous": false,
      "inputs": [
        {
          "indexed": true,
          "internalType": "bytes32",
          "name": "role",
          "type": "bytes32"
        },
        {
          "indexed": true,
          "internalType": "address",
          "name": "account",
          "type": "address"
        },
        {
          "indexed": true,
          "internalType": "address",
          "name": "sender",
          "type": "address"
        }
      ],
      "name": "RoleRevoked",
      "type": "event"
    },
    {
      "anonymous": false,
      "inputs": [
        {
          "indexed": true,
          "internalType": "uint256",
          "name": "orderId",
          "type": "uint256"
        },
        {
          "indexed": true,
          "internalType": "address",
          "name": "transporter",
          "type": "address"
        }
      ],
      "name": "TransportationRequested",
      "type": "event"
    },
    {
      "inputs": [],
      "name": "DEFAULT_ADMIN_ROLE",
      "outputs": [
        {
          "internalType": "bytes32",
          "name": "",
          "type": "bytes32"
        }
      ],
      "stateMutability": "view",
      "type": "function",
      "constant": true
    },
    {
      "inputs": [],
      "name": "HERDER_ROLE",
      "outputs": [
        {
          "internalType": "bytes32",
          "name": "",
          "type": "bytes32"
        }
      ],
      "stateMutability": "view",
      "type": "function",
      "constant": true
    },
    {
      "inputs": [],
      "name": "INDIVIDUAL_ROLE",
      "outputs": [
        {
          "internalType": "bytes32",
          "name": "",
          "type": "bytes32"
        }
      ],
      "stateMutability": "view",
      "type": "function",
      "constant": true
    },
    {
      "inputs": [],
      "name": "MARKET_ROLE",
      "outputs": [
        {
          "internalType": "bytes32",
          "name": "",
          "type": "bytes32"
        }
      ],
      "stateMutability": "view",
      "type": "function",
      "constant": true
    },
    {
      "inputs": [],
      "name": "SLAUGHTERHOUSE_ROLE",
      "outputs": [
        {
          "internalType": "bytes32",
          "name": "",
          "type": "bytes32"
        }
      ],
      "stateMutability": "view",
      "type": "function",
      "constant": true
    },
    {
      "inputs": [],
      "name": "TRANSPORTER_ROLE",
      "outputs": [
        {
          "internalType": "bytes32",
          "name": "",
          "type": "bytes32"
        }
      ],
      "stateMutability": "view",
      "type": "function",
      "constant": true
    },
    {
      "inputs": [
        {
          "internalType": "string",
          "name": "",
          "type": "string"
        }
      ],
      "name": "aimags",
      "outputs": [
        {
          "internalType": "uint256",
          "name": "pastureCarryingCapacity",
          "type": "uint256"
        },
        {
          "internalType": "uint256",
          "name": "totalLivestockNumber",
          "type": "uint256"
        },
        {
          "internalType": "uint256",
          "name": "totalHerderNumber",
          "type": "uint256"
        }
      ],
      "stateMutability": "view",
      "type": "function",
      "constant": true
    },
    {
      "inputs": [
        {
          "internalType": "uint256",
          "name": "",
          "type": "uint256"
        }
      ],
      "name": "escrowedFunds",
      "outputs": [
        {
          "internalType": "uint256",
          "name": "",
          "type": "uint256"
        }
      ],
      "stateMutability": "view",
      "type": "function",
      "constant": true
    },
    {
      "inputs": [
        {
          "internalType": "bytes32",
          "name": "role",
          "type": "bytes32"
        }
      ],
      "name": "getRoleAdmin",
      "outputs": [
        {
          "internalType": "bytes32",
          "name": "",
          "type": "bytes32"
        }
      ],
      "stateMutability": "view",
      "type": "function",
      "constant": true
    },
    {
      "inputs": [
        {
          "internalType": "bytes32",
          "name": "role",
          "type": "bytes32"
        },
        {
          "internalType": "address",
          "name": "account",
          "type": "address"
        }
      ],
      "name": "grantRole",
      "outputs": [],
      "stateMutability": "nonpayable",
      "type": "function"
    },
    {
      "inputs": [
        {
          "internalType": "address",
          "name": "",
          "type": "address"
        }
      ],
      "name": "hasChosenRole",
      "outputs": [
        {
          "internalType": "bool",
          "name": "",
          "type": "bool"
        }
      ],
      "stateMutability": "view",
      "type": "function",
      "constant": true
    },
    {
      "inputs": [
        {
          "internalType": "bytes32",
          "name": "role",
          "type": "bytes32"
        },
        {
          "internalType": "address",
          "name": "account",
          "type": "address"
        }
      ],
      "name": "hasRole",
      "outputs": [
        {
          "internalType": "bool",
          "name": "",
          "type": "bool"
        }
      ],
      "stateMutability": "view",
      "type": "function",
      "constant": true
    },
    {
      "inputs": [
        {
          "internalType": "address",
          "name": "",
          "type": "address"
        }
      ],
      "name": "herderAddressToId",
      "outputs": [
        {
          "internalType": "uint256",
          "name": "",
          "type": "uint256"
        }
      ],
      "stateMutability": "view",
      "type": "function",
      "constant": true
    },
    {
      "inputs": [
        {
          "internalType": "uint256",
          "name": "",
          "type": "uint256"
        }
      ],
      "name": "herders",
      "outputs": [
        {
          "internalType": "uint256",
          "name": "id",
          "type": "uint256"
        },
        {
          "internalType": "string",
          "name": "location",
          "type": "string"
        },
        {
          "internalType": "uint256",
          "name": "grade",
          "type": "uint256"
        },
        {
          "internalType": "bool",
          "name": "registered",
          "type": "bool"
        }
      ],
      "stateMutability": "view",
      "type": "function",
      "constant": true
    },
    {
      "inputs": [
        {
          "internalType": "address",
          "name": "",
          "type": "address"
        }
      ],
      "name": "individuals",
      "outputs": [
        {
          "internalType": "uint256",
          "name": "id",
          "type": "uint256"
        },
        {
          "internalType": "uint256",
          "name": "location",
          "type": "uint256"
        },
        {
          "internalType": "bool",
          "name": "registered",
          "type": "bool"
        }
      ],
      "stateMutability": "view",
      "type": "function",
      "constant": true
    },
    {
      "inputs": [
        {
          "internalType": "address",
          "name": "",
          "type": "address"
        }
      ],
      "name": "markets",
      "outputs": [
        {
          "internalType": "uint256",
          "name": "id",
          "type": "uint256"
        },
        {
          "internalType": "uint256",
          "name": "location",
          "type": "uint256"
        },
        {
          "internalType": "bool",
          "name": "registered",
          "type": "bool"
        }
      ],
      "stateMutability": "view",
      "type": "function",
      "constant": true
    },
    {
      "inputs": [],
      "name": "nextOrderId",
      "outputs": [
        {
          "internalType": "uint256",
          "name": "",
          "type": "uint256"
        }
      ],
      "stateMutability": "view",
      "type": "function",
      "constant": true
    },
    {
      "inputs": [
        {
          "internalType": "uint256",
          "name": "",
          "type": "uint256"
        }
      ],
      "name": "orders",
      "outputs": [
        {
          "internalType": "uint256",
          "name": "id",
          "type": "uint256"
        },
        {
          "internalType": "address",
          "name": "buyer",
          "type": "address"
        },
        {
          "internalType": "address",
          "name": "seller",
          "type": "address"
        },
        {
          "internalType": "enum Supplychain.LivestockType",
          "name": "livestockType",
          "type": "uint8"
        },
        {
          "internalType": "uint256",
          "name": "quantity",
          "type": "uint256"
        },
        {
          "internalType": "uint256",
          "name": "price",
          "type": "uint256"
        },
        {
          "internalType": "enum Supplychain.OrderStatus",
          "name": "status",
          "type": "uint8"
        }
      ],
      "stateMutability": "view",
      "type": "function",
      "constant": true
    },
    {
      "inputs": [],
      "name": "owner",
      "outputs": [
        {
          "internalType": "address",
          "name": "",
          "type": "address"
        }
      ],
      "stateMutability": "view",
      "type": "function",
      "constant": true
    },
    {
      "inputs": [],
      "name": "renounceOwnership",
      "outputs": [],
      "stateMutability": "nonpayable",
      "type": "function"
    },
    {
      "inputs": [
        {
          "internalType": "bytes32",
          "name": "role",
          "type": "bytes32"
        },
        {
          "internalType": "address",
          "name": "callerConfirmation",
          "type": "address"
        }
      ],
      "name": "renounceRole",
      "outputs": [],
      "stateMutability": "nonpayable",
      "type": "function"
    },
    {
      "inputs": [
        {
          "internalType": "bytes32",
          "name": "role",
          "type": "bytes32"
        },
        {
          "internalType": "address",
          "name": "account",
          "type": "address"
        }
      ],
      "name": "revokeRole",
      "outputs": [],
      "stateMutability": "nonpayable",
      "type": "function"
    },
    {
      "inputs": [
        {
          "internalType": "address",
          "name": "",
          "type": "address"
        }
      ],
      "name": "slaughterhouses",
      "outputs": [
        {
          "internalType": "uint256",
          "name": "id",
          "type": "uint256"
        },
        {
          "internalType": "uint256",
          "name": "location",
          "type": "uint256"
        },
        {
          "internalType": "bool",
          "name": "registered",
          "type": "bool"
        }
      ],
      "stateMutability": "view",
      "type": "function",
      "constant": true
    },
    {
      "inputs": [
        {
          "internalType": "bytes4",
          "name": "interfaceId",
          "type": "bytes4"
        }
      ],
      "name": "supportsInterface",
      "outputs": [
        {
          "internalType": "bool",
          "name": "",
          "type": "bool"
        }
      ],
      "stateMutability": "view",
      "type": "function",
      "constant": true
    },
    {
      "inputs": [
        {
          "internalType": "address",
          "name": "newOwner",
          "type": "address"
        }
      ],
      "name": "transferOwnership",
      "outputs": [],
      "stateMutability": "nonpayable",
      "type": "function"
    },
    {
      "inputs": [
        {
          "internalType": "address",
          "name": "",
          "type": "address"
        }
      ],
      "name": "transporters",
      "outputs": [
        {
          "internalType": "uint256",
          "name": "id",
          "type": "uint256"
        },
        {
          "internalType": "string",
          "name": "truckInfo",
          "type": "string"
        },
        {
          "internalType": "uint256",
          "name": "pricePerKm",
          "type": "uint256"
        },
        {
          "internalType": "bool",
          "name": "registered",
          "type": "bool"
        }
      ],
      "stateMutability": "view",
      "type": "function",
      "constant": true
    },
    {
      "inputs": [
        {
          "internalType": "enum Supplychain.RoleChoice",
          "name": "choice",
          "type": "uint8"
        }
      ],
      "name": "chooseRole",
      "outputs": [],
      "stateMutability": "nonpayable",
      "type": "function"
    },
    {
      "inputs": [
        {
          "internalType": "string",
          "name": "locationKey",
          "type": "string"
        },
        {
          "internalType": "uint256[]",
          "name": "livestockByType",
          "type": "uint256[]"
        }
      ],
      "name": "registerHerder",
      "outputs": [],
      "stateMutability": "nonpayable",
      "type": "function"
    },
    {
      "inputs": [
        {
          "internalType": "uint256",
          "name": "location",
          "type": "uint256"
        },
        {
          "internalType": "uint256[]",
          "name": "pricePerKg",
          "type": "uint256[]"
        }
      ],
      "name": "registerSlaughterhouse",
      "outputs": [],
      "stateMutability": "nonpayable",
      "type": "function"
    },
    {
      "inputs": [
        {
          "internalType": "string",
          "name": "truckInfo",
          "type": "string"
        },
        {
          "internalType": "uint256",
          "name": "pricePerKm",
          "type": "uint256"
        }
      ],
      "name": "registerTransporter",
      "outputs": [],
      "stateMutability": "nonpayable",
      "type": "function"
    },
    {
      "inputs": [
        {
          "internalType": "uint256",
          "name": "location",
          "type": "uint256"
        },
        {
          "internalType": "uint256[]",
          "name": "pricePerKg",
          "type": "uint256[]"
        }
      ],
      "name": "registerMarket",
      "outputs": [],
      "stateMutability": "nonpayable",
      "type": "function"
    },
    {
      "inputs": [
        {
          "internalType": "uint256",
          "name": "location",
          "type": "uint256"
        }
      ],
      "name": "registerIndividual",
      "outputs": [],
      "stateMutability": "nonpayable",
      "type": "function"
    },
    {
      "inputs": [
        {
          "internalType": "address",
          "name": "seller",
          "type": "address"
        },
        {
          "internalType": "enum Supplychain.LivestockType",
          "name": "livestockType",
          "type": "uint8"
        },
        {
          "internalType": "uint256",
          "name": "quantity",
          "type": "uint256"
        }
      ],
      "name": "placeOrder",
      "outputs": [],
      "stateMutability": "payable",
      "type": "function",
      "payable": true
    },
    {
      "inputs": [
        {
          "internalType": "uint256",
          "name": "orderId",
          "type": "uint256"
        },
        {
          "internalType": "bool",
          "name": "confirm",
          "type": "bool"
        }
      ],
      "name": "confirmOrder",
      "outputs": [],
      "stateMutability": "nonpayable",
      "type": "function"
    },
    {
      "inputs": [
        {
          "internalType": "uint256",
          "name": "orderId",
          "type": "uint256"
        },
        {
          "internalType": "address",
          "name": "transporter",
          "type": "address"
        }
      ],
      "name": "requestTransportation",
      "outputs": [],
      "stateMutability": "nonpayable",
      "type": "function"
    },
    {
      "inputs": [
        {
          "internalType": "uint256",
          "name": "orderId",
          "type": "uint256"
        }
      ],
      "name": "confirmDeliveryRequest",
      "outputs": [],
      "stateMutability": "nonpayable",
      "type": "function"
    },
    {
      "inputs": [
        {
          "internalType": "uint256",
          "name": "orderId",
          "type": "uint256"
        },
        {
          "internalType": "uint256",
          "name": "quantityPickedUp",
          "type": "uint256"
        }
      ],
      "name": "confirmPickUp",
      "outputs": [],
      "stateMutability": "nonpayable",
      "type": "function"
    },
    {
      "inputs": [
        {
          "internalType": "uint256",
          "name": "orderId",
          "type": "uint256"
        },
        {
          "internalType": "uint256[]",
          "name": "earTagNumbers",
          "type": "uint256[]"
        }
      ],
      "name": "confirmDelivery",
      "outputs": [],
      "stateMutability": "nonpayable",
      "type": "function"
    },
    {
      "inputs": [
        {
          "internalType": "uint256",
          "name": "orderId",
          "type": "uint256"
        }
      ],
      "name": "cancelOrder",
      "outputs": [],
      "stateMutability": "nonpayable",
      "type": "function"
    }
  ],
  "bytecode": "0x608060405260016002556001600d553480156200001a575f80fd5b50335f73ffffffffffffffffffffffffffffffffffffffff168173ffffffffffffffffffffffffffffffffffffffff16036200008f575f6040517f1e4fbdf700000000000000000000000000000000000000000000000000000000815260040162000086919062000b78565b60405180910390fd5b620000a081620000cc60201b60201c565b50620000b55f801b336200018d60201b60201c565b50620000c66200028860201b60201c565b62001435565b5f805f9054906101000a900473ffffffffffffffffffffffffffffffffffffffff169050815f806101000a81548173ffffffffffffffffffffffffffffffffffffffff021916908373ffffffffffffffffffffffffffffffffffffffff1602179055508173ffffffffffffffffffffffffffffffffffffffff168173ffffffffffffffffffffffffffffffffffffffff167f8be0079c531659141344cd1fd0a4f28419497f9722a3daafe3b4186f6b6457e060405160405180910390a35050565b5f620001a0838362000aca60201b60201c565b6200027e576001805f8581526020019081526020015f205f015f8473ffffffffffffffffffffffffffffffffffffffff1673ffffffffffffffffffffffffffffffffffffffff1681526020019081526020015f205f6101000a81548160ff0219169083151502179055506200021a62000b2e60201b60201c565b73ffffffffffffffffffffffffffffffffffffffff168273ffffffffffffffffffffffffffffffffffffffff16847f2f8788117e7eff1d82e926ec794901d17c78024a50270940304540a733656f0d60405160405180910390a46001905062000282565b5f90505b92915050565b6040518060600160405280623709d881526020016238c7648152602001612684815250600a604051620002bb9062000beb565b90815260200160405180910390205f820151815f015560208201518160010155604082015181600201559050506040518060600160405280622a6b608152602001623054ee8152602001611fcc815250600a6040516200031b9062000c4f565b90815260200160405180910390205f820151815f015560208201518160010155604082015181600201559050506040518060600160405280620d0a48815260200162226bc281526020016127b0815250600a6040516200037b9062000cb3565b90815260200160405180910390205f820151815f015560208201518160010155604082015181600201559050506040518060600160405280620b90f081526020016234fdd28152602001612152815250600a604051620003db9062000d17565b90815260200160405180910390205f820151815f01556020820151816001015560408201518160020155905050604051806060016040528062113640815260200162359dfa81526020016126e8815250600a6040516200043b9062000d7b565b90815260200160405180910390205f820151815f015560208201518160010155604082015181600201559050506040518060600160405280620298108152602001620297d481526020016103d4815250600a6040516200049b9062000ddf565b90815260200160405180910390205f820151815f015560208201518160010155604082015181600201559050506040518060600160405280623eddc081526020016246074e81526020016145a6815250600a604051620004fb9062000e43565b90815260200160405180910390205f820151815f015560208201518160010155604082015181600201559050506040518060600160405280623c46148152602001623b66688152602001612364815250600a6040516200055b9062000ea7565b90815260200160405180910390205f820151815f015560208201518160010155604082015181600201559050506040518060600160405280620b100881526020016238c1a68152602001613336815250600a604051620005bb9062000f0b565b90815260200160405180910390205f820151815f015560208201518160010155604082015181600201559050506040518060600160405280621d255481526020016259d08a8152602001613f2a815250600a6040516200061b9062000f6f565b90815260200160405180910390205f820151815f0155602082015181600101556040820151816002015590505060405180606001604052806262daa48152602001625f6e148152602001614c54815250600a6040516200067b9062000fd3565b90815260200160405180910390205f820151815f015560208201518160010155604082015181600201559050506040518060600160405280624ddd988152602001624deff4815260200161346c815250600a604051620006db9062001037565b90815260200160405180910390205f820151815f0155602082015181600101556040820151816002015590505060405180606001604052806207f3be8152602001620715a28152602001610320815250600a6040516200073b906200109b565b90815260200160405180910390205f820151815f015560208201518160010155604082015181600201559050506040518060600160405280622ba50c8152602001621d2e1481526020016115a4815250600a6040516200079b90620010ff565b90815260200160405180910390205f820151815f0155602082015181600101556040820151816002015590505060405180606001604052806218b8208152602001622c6604815260200161122a815250600a604051620007fb9062001163565b90815260200160405180910390205f820151815f0155602082015181600101556040820151816002015590505060405180606001604052806208c87081526020016204c77a81526020016104ce815250600a6040516200085b90620011c7565b90815260200160405180910390205f820151815f0155602082015181600101556040820151816002015590505060405180606001604052806207e388815260200162283e1281526020016119b4815250600a604051620008bb906200122b565b90815260200160405180910390205f820151815f0155602082015181600101556040820151816002015590505060405180606001604052806220d0c88152602001623755828152602001611e00815250600a6040516200091b906200128f565b90815260200160405180910390205f820151815f015560208201518160010155604082015181600201559050506040518060600160405280624b2a3081526020016232fff08152602001611810815250600a6040516200097b90620012f3565b90815260200160405180910390205f820151815f015560208201518160010155604082015181600201559050506040518060600160405280624e212c81526020016246dfc081526020016122f6815250600a604051620009db9062001357565b90815260200160405180910390205f820151815f015560208201518160010155604082015181600201559050506040518060600160405280624dd1f48152602001624d7646815260200161238c815250600a60405162000a3b90620013bb565b90815260200160405180910390205f820151815f01556020820151816001015560408201518160020155905050604051806060016040528062065d0681526020016206c1d88152602001610cee815250600a60405162000a9b906200141f565b90815260200160405180910390205f820151815f01556020820151816001015560408201518160020155905050565b5f60015f8481526020019081526020015f205f015f8373ffffffffffffffffffffffffffffffffffffffff1673ffffffffffffffffffffffffffffffffffffffff1681526020019081526020015f205f9054906101000a900460ff16905092915050565b5f33905090565b5f73ffffffffffffffffffffffffffffffffffffffff82169050919050565b5f62000b608262000b35565b9050919050565b62000b728162000b54565b82525050565b5f60208201905062000b8d5f83018462000b67565b92915050565b5f81905092915050565b7f5a617668616e00000000000000000000000000000000000000000000000000005f82015250565b5f62000bd360068362000b93565b915062000be08262000b9d565b600682019050919050565b5f62000bf78262000bc5565b9150819050919050565b7f476f62692d416c746169000000000000000000000000000000000000000000005f82015250565b5f62000c37600a8362000b93565b915062000c448262000c01565b600a82019050919050565b5f62000c5b8262000c29565b9150819050919050565b7f426179616e2d556c6769690000000000000000000000000000000000000000005f82015250565b5f62000c9b600b8362000b93565b915062000ca88262000c65565b600b82019050919050565b5f62000cbf8262000c8d565b9150819050919050565b7f4b686f76640000000000000000000000000000000000000000000000000000005f82015250565b5f62000cff60058362000b93565b915062000d0c8262000cc9565b600582019050919050565b5f62000d238262000cf1565b9150819050919050565b7f55767300000000000000000000000000000000000000000000000000000000005f82015250565b5f62000d6360038362000b93565b915062000d708262000d2d565b600382019050919050565b5f62000d878262000d55565b9150819050919050565b7f4f726b686f6e00000000000000000000000000000000000000000000000000005f82015250565b5f62000dc760068362000b93565b915062000dd48262000d91565b600682019050919050565b5f62000deb8262000db9565b9150819050919050565b7f557675726b68616e6761690000000000000000000000000000000000000000005f82015250565b5f62000e2b600b8362000b93565b915062000e388262000df5565b600b82019050919050565b5f62000e4f8262000e1d565b9150819050919050565b7f42756c67616e00000000000000000000000000000000000000000000000000005f82015250565b5f62000e8f60068362000b93565b915062000e9c8262000e59565b600682019050919050565b5f62000eb38262000e81565b9150819050919050565b7f426179616e6b686f6e676f7200000000000000000000000000000000000000005f82015250565b5f62000ef3600c8362000b93565b915062000f008262000ebd565b600c82019050919050565b5f62000f178262000ee5565b9150819050919050565b7f41726b68616e67616900000000000000000000000000000000000000000000005f82015250565b5f62000f5760098362000b93565b915062000f648262000f21565b600982019050919050565b5f62000f7b8262000f49565b9150819050919050565b7f4b6875767367756c0000000000000000000000000000000000000000000000005f82015250565b5f62000fbb60088362000b93565b915062000fc88262000f85565b600882019050919050565b5f62000fdf8262000fad565b9150819050919050565b7f54757600000000000000000000000000000000000000000000000000000000005f82015250565b5f6200101f60038362000b93565b91506200102c8262000fe9565b600382019050919050565b5f620010438262001011565b9150819050919050565b7f476f62692d53756d6265720000000000000000000000000000000000000000005f82015250565b5f62001083600b8362000b93565b915062001090826200104d565b600b82019050919050565b5f620010a78262001075565b9150819050919050565b7f53656c656e6765000000000000000000000000000000000000000000000000005f82015250565b5f620010e760078362000b93565b9150620010f482620010b1565b600782019050919050565b5f6200110b82620010d9565b9150819050919050565b7f446f726e6f676f626900000000000000000000000000000000000000000000005f82015250565b5f6200114b60098362000b93565b9150620011588262001115565b600982019050919050565b5f6200116f826200113d565b9150819050919050565b7f4461726b68616e2d55756c0000000000000000000000000000000000000000005f82015250565b5f620011af600b8362000b93565b9150620011bc8262001179565b600b82019050919050565b5f620011d382620011a1565b9150819050919050565b7f556d6e75676f62690000000000000000000000000000000000000000000000005f82015250565b5f6200121360088362000b93565b91506200122082620011dd565b600882019050919050565b5f620012378262001205565b9150819050919050565b7f44756e64676f62690000000000000000000000000000000000000000000000005f82015250565b5f6200127760088362000b93565b9150620012848262001241565b600882019050919050565b5f6200129b8262001269565b9150819050919050565b7f446f726e6f6400000000000000000000000000000000000000000000000000005f82015250565b5f620012db60068362000b93565b9150620012e882620012a5565b600682019050919050565b5f620012ff82620012cd565b9150819050919050565b7f53756b68626161746172000000000000000000000000000000000000000000005f82015250565b5f6200133f600a8362000b93565b91506200134c8262001309565b600a82019050919050565b5f620013638262001331565b9150819050919050565b7f4b68656e746969000000000000000000000000000000000000000000000000005f82015250565b5f620013a360078362000b93565b9150620013b0826200136d565b600782019050919050565b5f620013c78262001395565b9150819050919050565b7f556c61616e6261617461720000000000000000000000000000000000000000005f82015250565b5f62001407600b8362000b93565b91506200141482620013d1565b600b82019050919050565b5f6200142b82620013f9565b9150819050919050565b614a9680620014435f395ff3fe60806040526004361061022f575f3560e01c80638959db491161012d578063b4ddcf37116100aa578063d81aa8141161006e578063d81aa81414610882578063e25bd158146108aa578063ee4091b8146108e9578063efad478414610905578063f2fde38b1461092d5761022f565b8063b4ddcf37146107a6578063c750a8ca146107ce578063c7be0c0a146107f6578063cf8522a014610832578063d547741f1461085a5761022f565b8063a217fddf116100f1578063a217fddf14610695578063a85c38ef146106bf578063adf00dbf14610701578063b32432e914610740578063b489e1471461076a5761022f565b80638959db49146105755780638da5cb5b146105b35780638e8f294b146105dd57806391d148541461061b578063944a2cc0146106575761022f565b80633c6c5f16116101bb578063514fcac71161017f578063514fcac7146104bd57806353d072a3146104e5578063715018a61461050f5780637e8ebeb314610525578063885b4d111461054d5761022f565b80633c6c5f16146103c55780633e27ec9b146104015780634bb2226a1461042b5780634eabbe77146104695780634fe664e3146104935761022f565b80632f2ff15d116102025780632f2ff15d146102fd57806336568abe14610325578063385501c61461034d578063386316ed14610375578063386f586d1461039d5761022f565b806301ffc9a714610233578063032583071461026f578063248a9ca3146102975780632a58b330146102d3575b5f80fd5b34801561023e575f80fd5b5061025960048036038101906102549190612f05565b610955565b6040516102669190612f4a565b60405180910390f35b34801561027a575f80fd5b5061029560048036038101906102909190612f86565b6109ce565b005b3480156102a2575f80fd5b506102bd60048036038101906102b89190612fe4565b610c9e565b6040516102ca919061301e565b60405180910390f35b3480156102de575f80fd5b506102e7610cbb565b6040516102f4919061304f565b60405180910390f35b348015610308575f80fd5b50610323600480360381019061031e91906130c2565b610cc1565b005b348015610330575f80fd5b5061034b600480360381019061034691906130c2565b610ce3565b005b348015610358575f80fd5b50610373600480360381019061036e919061312a565b610d5e565b005b348015610380575f80fd5b5061039b60048036038101906103969190613355565b610e7e565b005b3480156103a8575f80fd5b506103c360048036038101906103be9190613424565b6110d4565b005b3480156103d0575f80fd5b506103eb60048036038101906103e69190613481565b611318565b6040516103f89190612f4a565b60405180910390f35b34801561040c575f80fd5b50610415611335565b604051610422919061301e565b60405180910390f35b348015610436575f80fd5b50610451600480360381019061044c91906134ac565b611359565b604051610460939291906134f3565b60405180910390f35b348015610474575f80fd5b5061047d611397565b60405161048a919061301e565b60405180910390f35b34801561049e575f80fd5b506104a76113bb565b6040516104b4919061301e565b60405180910390f35b3480156104c8575f80fd5b506104e360048036038101906104de919061312a565b6113df565b005b3480156104f0575f80fd5b506104f9611641565b604051610506919061301e565b60405180910390f35b34801561051a575f80fd5b50610523611665565b005b348015610530575f80fd5b5061054b60048036038101906105469190613528565b611678565b005b348015610558575f80fd5b50610573600480360381019061056e9190613528565b6117b5565b005b348015610580575f80fd5b5061059b60048036038101906105969190613481565b6118f2565b6040516105aa93929190613582565b60405180910390f35b3480156105be575f80fd5b506105c7611924565b6040516105d491906135c6565b60405180910390f35b3480156105e8575f80fd5b5061060360048036038101906105fe9190613481565b61194b565b60405161061293929190613582565b60405180910390f35b348015610626575f80fd5b50610641600480360381019061063c91906130c2565b61197d565b60405161064e9190612f4a565b60405180910390f35b348015610662575f80fd5b5061067d60048036038101906106789190613481565b6119e1565b60405161068c93929190613582565b60405180910390f35b3480156106a0575f80fd5b506106a9611a13565b6040516106b6919061301e565b60405180910390f35b3480156106ca575f80fd5b506106e560048036038101906106e0919061312a565b611a19565b6040516106f89796959493929190613698565b60405180910390f35b34801561070c575f80fd5b506107276004803603810190610722919061312a565b611aae565b604051610737949392919061377f565b60405180910390f35b34801561074b575f80fd5b50610754611b6c565b604051610761919061301e565b60405180910390f35b348015610775575f80fd5b50610790600480360381019061078b919061312a565b611b90565b60405161079d919061304f565b60405180910390f35b3480156107b1575f80fd5b506107cc60048036038101906107c791906137c9565b611ba5565b005b3480156107d9575f80fd5b506107f460048036038101906107ef9190613823565b611cdb565b005b348015610801575f80fd5b5061081c60048036038101906108179190613481565b611e07565b604051610829919061304f565b60405180910390f35b34801561083d575f80fd5b506108586004803603810190610853919061312a565b611e1c565b005b348015610865575f80fd5b50610880600480360381019061087b91906130c2565b611f3f565b005b34801561088d575f80fd5b506108a860048036038101906108a3919061388b565b611f61565b005b3480156108b5575f80fd5b506108d060048036038101906108cb9190613481565b612274565b6040516108e0949392919061377f565b60405180910390f35b61090360048036038101906108fe91906138ec565b612332565b005b348015610910575f80fd5b5061092b6004803603810190610926919061393c565b612725565b005b348015610938575f80fd5b50610953600480360381019061094e9190613481565b6128d1565b005b5f7f7965db0b000000000000000000000000000000000000000000000000000000007bffffffffffffffffffffffffffffffffffffffffffffffffffffffff1916827bffffffffffffffffffffffffffffffffffffffffffffffffffffffff191614806109c757506109c682612955565b5b9050919050565b600c5f3373ffffffffffffffffffffffffffffffffffffffff1673ffffffffffffffffffffffffffffffffffffffff1681526020019081526020015f205f9054906101000a900460ff1615610a58576040517f08c379a0000000000000000000000000000000000000000000000000000000008152600401610a4f906139c4565b60405180910390fd5b5f806004811115610a6c57610a6b6135df565b5b826004811115610a7f57610a7e6135df565b5b03610aac577fdeda07f8981ef47cfb7c351ac54d4e6bb3c9d410dea6d25a7da7e2213f2163cd9050610c3a565b60016004811115610ac057610abf6135df565b5b826004811115610ad357610ad26135df565b5b03610b00577f577fe5bf41705990bd9df5ff2729a1df5e54d0a402048cfb533e3b895877c2319050610c39565b60026004811115610b1457610b136135df565b5b826004811115610b2757610b266135df565b5b03610b54577f7c2d301983a60156b882648bf1c7210b103e1d4715ba229e6182e4f8ecd987be9050610c38565b60036004811115610b6857610b676135df565b5b826004811115610b7b57610b7a6135df565b5b03610ba8577f23acc66832ff38a7ce3c1caf89922410f4374ba8fd897ffa98f088747997bc6d9050610c37565b600480811115610bbb57610bba6135df565b5b826004811115610bce57610bcd6135df565b5b03610bfb577fce28a64bebe1522e2f6a5b2d96ba812de0e0f67ef50ba12b4772b28227e9e7559050610c36565b6040517f08c379a0000000000000000000000000000000000000000000000000000000008152600401610c2d90613a2c565b60405180910390fd5b5b5b5b5b610c4481336129be565b506001600c5f3373ffffffffffffffffffffffffffffffffffffffff1673ffffffffffffffffffffffffffffffffffffffff1681526020019081526020015f205f6101000a81548160ff0219169083151502179055505050565b5f60015f8381526020019081526020015f20600101549050919050565b600d5481565b610cca82610c9e565b610cd381612aa7565b610cdd83836129be565b50505050565b610ceb612abb565b73ffffffffffffffffffffffffffffffffffffffff168173ffffffffffffffffffffffffffffffffffffffff1614610d4f576040517f6697b23200000000000000000000000000000000000000000000000000000000815260040160405180910390fd5b610d598282612ac2565b505050565b610d887f7c2d301983a60156b882648bf1c7210b103e1d4715ba229e6182e4f8ecd987be3361197d565b610dc7576040517f08c379a0000000000000000000000000000000000000000000000000000000008152600401610dbe90613a94565b60405180910390fd5b60026004811115610ddb57610dda6135df565b5b60085f8381526020019081526020015f206005015f9054906101000a900460ff166004811115610e0e57610e0d6135df565b5b14610e4e576040517f08c379a0000000000000000000000000000000000000000000000000000000008152600401610e4590613b22565b60405180910390fd5b807f375b4005eeae25d0e37d56e1b3841d3bb394b277efa2548de3293f5dcb7a349360405160405180910390a250565b610ea87fdeda07f8981ef47cfb7c351ac54d4e6bb3c9d410dea6d25a7da7e2213f2163cd3361197d565b610ee7576040517f08c379a0000000000000000000000000000000000000000000000000000000008152600401610ede90613b8a565b60405180910390fd5b5f600b5f3373ffffffffffffffffffffffffffffffffffffffff1673ffffffffffffffffffffffffffffffffffffffff1681526020019081526020015f205414610f66576040517f08c379a0000000000000000000000000000000000000000000000000000000008152600401610f5d90613bf2565b60405180910390fd5b5f60025f815480929190610f7990613c3d565b9190505590505f600a84604051610f909190613cbe565b908152602001604051809103902090505f815f015411610fe5576040517f08c379a0000000000000000000000000000000000000000000000000000000008152600401610fdc90613d1e565b60405180910390fd5b5f610ff08285612bac565b90505f610ffc82612c3d565b90505f60035f8681526020019081526020015f20905084815f01819055508681600101908161102b9190613f36565b508181600201819055506001816005015f6101000a81548160ff02191690831515021790555084600b5f3373ffffffffffffffffffffffffffffffffffffffff1673ffffffffffffffffffffffffffffffffffffffff1681526020019081526020015f2081905550847f641417db1301e96e8359f068067572398f836d36927a157915e57200a9f296b0836040516110c3919061304f565b60405180910390a250505050505050565b600260048111156110e8576110e76135df565b5b60085f8581526020019081526020015f206005015f9054906101000a900460ff16600481111561111b5761111a6135df565b5b1461115b576040517f08c379a00000000000000000000000000000000000000000000000000000000081526004016111529061404f565b60405180910390fd5b3373ffffffffffffffffffffffffffffffffffffffff1660085f8581526020019081526020015f206001015f9054906101000a900473ffffffffffffffffffffffffffffffffffffffff1673ffffffffffffffffffffffffffffffffffffffff16146111fc576040517f08c379a00000000000000000000000000000000000000000000000000000000081526004016111f3906140dd565b60405180910390fd5b600360085f8581526020019081526020015f206005015f6101000a81548160ff02191690836004811115611233576112326135df565b5b02179055505f60095f8581526020019081526020015f2054905060095f8581526020019081526020015f205f905560085f8581526020019081526020015f206002015f9054906101000a900473ffffffffffffffffffffffffffffffffffffffff1673ffffffffffffffffffffffffffffffffffffffff166108fc8290811502906040515f60405180830381858888f193505050501580156112d7573d5f803e3d5ffd5b50837f65f6b99f4c50a1afb281348e7f76d7487937dbe63f937f08157d0ff4fa05b3dd848460405161130a929190614173565b60405180910390a250505050565b600c602052805f5260405f205f915054906101000a900460ff1681565b7f23acc66832ff38a7ce3c1caf89922410f4374ba8fd897ffa98f088747997bc6d81565b600a818051602081018201805184825260208301602085012081835280955050505050505f91509050805f0154908060010154908060020154905083565b7f7c2d301983a60156b882648bf1c7210b103e1d4715ba229e6182e4f8ecd987be81565b7fce28a64bebe1522e2f6a5b2d96ba812de0e0f67ef50ba12b4772b28227e9e75581565b5f60085f8381526020019081526020015f209050806002015f9054906101000a900473ffffffffffffffffffffffffffffffffffffffff1673ffffffffffffffffffffffffffffffffffffffff163373ffffffffffffffffffffffffffffffffffffffff16148061149e5750806001015f9054906101000a900473ffffffffffffffffffffffffffffffffffffffff1673ffffffffffffffffffffffffffffffffffffffff163373ffffffffffffffffffffffffffffffffffffffff16145b6114dd576040517f08c379a00000000000000000000000000000000000000000000000000000000081526004016114d4906141df565b60405180910390fd5b5f60048111156114f0576114ef6135df565b5b816005015f9054906101000a900460ff166004811115611513576115126135df565b5b14611553576040517f08c379a000000000000000000000000000000000000000000000000000000000815260040161154a90614247565b60405180910390fd5b6004816005015f6101000a81548160ff0219169083600481111561157a576115796135df565b5b02179055505f60095f8481526020019081526020015f2054905060095f8481526020019081526020015f205f9055816001015f9054906101000a900473ffffffffffffffffffffffffffffffffffffffff1673ffffffffffffffffffffffffffffffffffffffff166108fc8290811502906040515f60405180830381858888f1935050505015801561160e573d5f803e3d5ffd5b50827fc41f4ceb2938876c35e61b705e9d2f18a02c4a26ce5e049a6308a943d46851b360405160405180910390a2505050565b7f577fe5bf41705990bd9df5ff2729a1df5e54d0a402048cfb533e3b895877c23181565b61166d612ca0565b6116765f612d27565b565b6116a27f23acc66832ff38a7ce3c1caf89922410f4374ba8fd897ffa98f088747997bc6d3361197d565b6116e1576040517f08c379a00000000000000000000000000000000000000000000000000000000081526004016116d8906142af565b60405180910390fd5b5f60065f3373ffffffffffffffffffffffffffffffffffffffff1673ffffffffffffffffffffffffffffffffffffffff1681526020019081526020015f209050806003015f9054906101000a900460ff1615611772576040517f08c379a000000000000000000000000000000000000000000000000000000000815260040161176990614317565b60405180910390fd5b6001816003015f6101000a81548160ff021916908315150217905550828160010181905550818160020190805190602001906117af929190612e39565b50505050565b6117df7f577fe5bf41705990bd9df5ff2729a1df5e54d0a402048cfb533e3b895877c2313361197d565b61181e576040517f08c379a00000000000000000000000000000000000000000000000000000000081526004016118159061437f565b60405180910390fd5b5f60045f3373ffffffffffffffffffffffffffffffffffffffff1673ffffffffffffffffffffffffffffffffffffffff1681526020019081526020015f209050806003015f9054906101000a900460ff16156118af576040517f08c379a00000000000000000000000000000000000000000000000000000000081526004016118a69061440d565b60405180910390fd5b6001816003015f6101000a81548160ff021916908315150217905550828160010181905550818160020190805190602001906118ec929190612e39565b50505050565b6004602052805f5260405f205f91509050805f015490806001015490806003015f9054906101000a900460ff16905083565b5f805f9054906101000a900473ffffffffffffffffffffffffffffffffffffffff16905090565b6006602052805f5260405f205f91509050805f015490806001015490806003015f9054906101000a900460ff16905083565b5f60015f8481526020019081526020015f205f015f8373ffffffffffffffffffffffffffffffffffffffff1673ffffffffffffffffffffffffffffffffffffffff1681526020019081526020015f205f9054906101000a900460ff16905092915050565b6007602052805f5260405f205f91509050805f015490806001015490806002015f9054906101000a900460ff16905083565b5f801b81565b6008602052805f5260405f205f91509050805f015490806001015f9054906101000a900473ffffffffffffffffffffffffffffffffffffffff1690806002015f9054906101000a900473ffffffffffffffffffffffffffffffffffffffff16908060020160149054906101000a900460ff1690806003015490806004015490806005015f9054906101000a900460ff16905087565b6003602052805f5260405f205f91509050805f015490806001018054611ad390613d69565b80601f0160208091040260200160405190810160405280929190818152602001828054611aff90613d69565b8015611b4a5780601f10611b2157610100808354040283529160200191611b4a565b820191905f5260205f20905b815481529060010190602001808311611b2d57829003601f168201915b505050505090806002015490806005015f9054906101000a900460ff16905084565b7fdeda07f8981ef47cfb7c351ac54d4e6bb3c9d410dea6d25a7da7e2213f2163cd81565b6009602052805f5260405f205f915090505481565b611bcf7f7c2d301983a60156b882648bf1c7210b103e1d4715ba229e6182e4f8ecd987be3361197d565b611c0e576040517f08c379a0000000000000000000000000000000000000000000000000000000008152600401611c0590613a94565b60405180910390fd5b5f60055f3373ffffffffffffffffffffffffffffffffffffffff1673ffffffffffffffffffffffffffffffffffffffff1681526020019081526020015f209050806003015f9054906101000a900460ff1615611c9f576040517f08c379a0000000000000000000000000000000000000000000000000000000008152600401611c9690614475565b60405180910390fd5b6001816003015f6101000a81548160ff02191690831515021790555082816001019081611ccc9190613f36565b50818160020181905550505050565b611d057f7c2d301983a60156b882648bf1c7210b103e1d4715ba229e6182e4f8ecd987be3361197d565b611d44576040517f08c379a0000000000000000000000000000000000000000000000000000000008152600401611d3b90613a94565b60405180910390fd5b60026004811115611d5857611d576135df565b5b60085f8481526020019081526020015f206005015f9054906101000a900460ff166004811115611d8b57611d8a6135df565b5b14611dcb576040517f08c379a0000000000000000000000000000000000000000000000000000000008152600401611dc29061404f565b60405180910390fd5b817ff2b08439b0807c01318f8a6e74f582260437a65cfeb24a61031df46cadde941682604051611dfb919061304f565b60405180910390a25050565b600b602052805f5260405f205f915090505481565b611e467fce28a64bebe1522e2f6a5b2d96ba812de0e0f67ef50ba12b4772b28227e9e7553361197d565b611e85576040517f08c379a0000000000000000000000000000000000000000000000000000000008152600401611e7c906144dd565b60405180910390fd5b5f60075f3373ffffffffffffffffffffffffffffffffffffffff1673ffffffffffffffffffffffffffffffffffffffff1681526020019081526020015f209050806002015f9054906101000a900460ff1615611f16576040517f08c379a0000000000000000000000000000000000000000000000000000000008152600401611f0d90614545565b60405180910390fd5b6001816002015f6101000a81548160ff0219169083151502179055508181600101819055505050565b611f4882610c9e565b611f5181612aa7565b611f5b8383612ac2565b50505050565b611f8b7fdeda07f8981ef47cfb7c351ac54d4e6bb3c9d410dea6d25a7da7e2213f2163cd3361197d565b611fca576040517f08c379a0000000000000000000000000000000000000000000000000000000008152600401611fc190613b8a565b60405180910390fd5b3373ffffffffffffffffffffffffffffffffffffffff1660085f8481526020019081526020015f206002015f9054906101000a900473ffffffffffffffffffffffffffffffffffffffff1673ffffffffffffffffffffffffffffffffffffffff161461206b576040517f08c379a0000000000000000000000000000000000000000000000000000000008152600401612062906145d3565b60405180910390fd5b5f600481111561207e5761207d6135df565b5b60085f8481526020019081526020015f206005015f9054906101000a900460ff1660048111156120b1576120b06135df565b5b146120f1576040517f08c379a00000000000000000000000000000000000000000000000000000000081526004016120e89061463b565b60405180910390fd5b801561216557600160085f8481526020019081526020015f206005015f6101000a81548160ff0219169083600481111561212e5761212d6135df565b5b0217905550817faf50e0923cf2eedda3dc56c3d4d73b4d920cee133cd920ffb873db233abecb0c60405160405180910390a2612270565b600460085f8481526020019081526020015f206005015f6101000a81548160ff0219169083600481111561219c5761219b6135df565b5b02179055505f60095f8481526020019081526020015f2054905060095f8481526020019081526020015f205f905560085f8481526020019081526020015f206001015f9054906101000a900473ffffffffffffffffffffffffffffffffffffffff1673ffffffffffffffffffffffffffffffffffffffff166108fc8290811502906040515f60405180830381858888f19350505050158015612240573d5f803e3d5ffd5b50827fc41f4ceb2938876c35e61b705e9d2f18a02c4a26ce5e049a6308a943d46851b360405160405180910390a2505b5050565b6005602052805f5260405f205f91509050805f01549080600101805461229990613d69565b80601f01602080910402602001604051908101604052809291908181526020018280546122c590613d69565b80156123105780601f106122e757610100808354040283529160200191612310565b820191905f5260205f20905b8154815290600101906020018083116122f357829003601f168201915b505050505090806002015490806003015f9054906101000a900460ff16905084565b5f600b5f8573ffffffffffffffffffffffffffffffffffffffff1673ffffffffffffffffffffffffffffffffffffffff1681526020019081526020015f205490505f81036123b5576040517f08c379a00000000000000000000000000000000000000000000000000000000081526004016123ac906146c9565b60405180910390fd5b3373ffffffffffffffffffffffffffffffffffffffff168473ffffffffffffffffffffffffffffffffffffffff1603612423576040517f08c379a000000000000000000000000000000000000000000000000000000000815260040161241a90614757565b60405180910390fd5b5f60035f8381526020019081526020015f209050806005015f9054906101000a900460ff16612487576040517f08c379a000000000000000000000000000000000000000000000000000000000815260040161247e906146c9565b60405180910390fd5b5f816003015f8660048111156124a05761249f6135df565b5b60048111156124b2576124b16135df565b5b81526020019081526020015f2054905083811015612505576040517f08c379a00000000000000000000000000000000000000000000000000000000081526004016124fc906147bf565b60405180910390fd5b5f84836004015f88600481111561251f5761251e6135df565b5b6004811115612531576125306135df565b5b81526020019081526020015f205461254991906147dd565b905080341461258d576040517f08c379a000000000000000000000000000000000000000000000000000000000815260040161258490614868565b60405180910390fd5b3460095f600d5481526020019081526020015f20819055505f60085f600d5481526020019081526020015f209050600d54815f018190555033816001015f6101000a81548173ffffffffffffffffffffffffffffffffffffffff021916908373ffffffffffffffffffffffffffffffffffffffff16021790555087816002015f6101000a81548173ffffffffffffffffffffffffffffffffffffffff021916908373ffffffffffffffffffffffffffffffffffffffff160217905550868160020160146101000a81548160ff021916908360048111156126705761266f6135df565b5b02179055508581600301819055508181600401819055505f816005015f6101000a81548160ff021916908360048111156126ad576126ac6135df565b5b0217905550600d5f8154809291906126c490613c3d565b91905055503373ffffffffffffffffffffffffffffffffffffffff16815f01547f291c9d431146e4de667c04a6a738ed159e6dae2aaa909d85ca8ff7416719a60984604051612713919061304f565b60405180910390a35050505050505050565b3373ffffffffffffffffffffffffffffffffffffffff1660085f8481526020019081526020015f206001015f9054906101000a900473ffffffffffffffffffffffffffffffffffffffff1673ffffffffffffffffffffffffffffffffffffffff16146127c6576040517f08c379a00000000000000000000000000000000000000000000000000000000081526004016127bd906148f6565b60405180910390fd5b600160048111156127da576127d96135df565b5b60085f8481526020019081526020015f206005015f9054906101000a900460ff16600481111561280d5761280c6135df565b5b1461284d576040517f08c379a00000000000000000000000000000000000000000000000000000000081526004016128449061495e565b60405180910390fd5b600260085f8481526020019081526020015f206005015f6101000a81548160ff02191690836004811115612884576128836135df565b5b02179055508073ffffffffffffffffffffffffffffffffffffffff16827f328097f9b98552e583722c0678852e00db29948b32cd19e787c6419d9337ac7760405160405180910390a35050565b6128d9612ca0565b5f73ffffffffffffffffffffffffffffffffffffffff168173ffffffffffffffffffffffffffffffffffffffff1603612949575f6040517f1e4fbdf700000000000000000000000000000000000000000000000000000000815260040161294091906135c6565b60405180910390fd5b61295281612d27565b50565b5f7f01ffc9a7000000000000000000000000000000000000000000000000000000007bffffffffffffffffffffffffffffffffffffffffffffffffffffffff1916827bffffffffffffffffffffffffffffffffffffffffffffffffffffffff1916149050919050565b5f6129c9838361197d565b612a9d576001805f8581526020019081526020015f205f015f8473ffffffffffffffffffffffffffffffffffffffff1673ffffffffffffffffffffffffffffffffffffffff1681526020019081526020015f205f6101000a81548160ff021916908315150217905550612a3a612abb565b73ffffffffffffffffffffffffffffffffffffffff168273ffffffffffffffffffffffffffffffffffffffff16847f2f8788117e7eff1d82e926ec794901d17c78024a50270940304540a733656f0d60405160405180910390a460019050612aa1565b5f90505b92915050565b612ab881612ab3612abb565b612de8565b50565b5f33905090565b5f612acd838361197d565b15612ba2575f60015f8581526020019081526020015f205f015f8473ffffffffffffffffffffffffffffffffffffffff1673ffffffffffffffffffffffffffffffffffffffff1681526020019081526020015f205f6101000a81548160ff021916908315150217905550612b3f612abb565b73ffffffffffffffffffffffffffffffffffffffff168273ffffffffffffffffffffffffffffffffffffffff16847ff6391f5c32d9c69d2a47ea670b442974b53935d1edc7fd64eb21e047a839171b60405160405180910390a460019050612ba6565b5f90505b92915050565b5f80835f01548460010154612bc191906149a9565b90505f8460020154855f0154612bd791906149a9565b90505f805b8551811015612c1a57858181518110612bf857612bf76149d9565b5b602002602001015182612c0b9190614a06565b91508080600101915050612bdc565b508181612c2791906149a9565b83612c329190614a06565b935050505092915050565b5f60028211612c4f5760019050612c9b565b60048211612c605760029050612c9b565b60068211612c715760039050612c9b565b60088211612c825760049050612c9b565b600a821115612c92576006612c95565b60055b60ff1690505b919050565b612ca8612abb565b73ffffffffffffffffffffffffffffffffffffffff16612cc6611924565b73ffffffffffffffffffffffffffffffffffffffff1614612d2557612ce9612abb565b6040517f118cdaa7000000000000000000000000000000000000000000000000000000008152600401612d1c91906135c6565b60405180910390fd5b565b5f805f9054906101000a900473ffffffffffffffffffffffffffffffffffffffff169050815f806101000a81548173ffffffffffffffffffffffffffffffffffffffff021916908373ffffffffffffffffffffffffffffffffffffffff1602179055508173ffffffffffffffffffffffffffffffffffffffff168173ffffffffffffffffffffffffffffffffffffffff167f8be0079c531659141344cd1fd0a4f28419497f9722a3daafe3b4186f6b6457e060405160405180910390a35050565b612df2828261197d565b612e355780826040517fe2517d3f000000000000000000000000000000000000000000000000000000008152600401612e2c929190614a39565b60405180910390fd5b5050565b828054828255905f5260205f20908101928215612e73579160200282015b82811115612e72578251825591602001919060010190612e57565b5b509050612e809190612e84565b5090565b5b80821115612e9b575f815f905550600101612e85565b5090565b5f604051905090565b5f80fd5b5f80fd5b5f7fffffffff0000000000000000000000000000000000000000000000000000000082169050919050565b612ee481612eb0565b8114612eee575f80fd5b50565b5f81359050612eff81612edb565b92915050565b5f60208284031215612f1a57612f19612ea8565b5b5f612f2784828501612ef1565b91505092915050565b5f8115159050919050565b612f4481612f30565b82525050565b5f602082019050612f5d5f830184612f3b565b92915050565b60058110612f6f575f80fd5b50565b5f81359050612f8081612f63565b92915050565b5f60208284031215612f9b57612f9a612ea8565b5b5f612fa884828501612f72565b91505092915050565b5f819050919050565b612fc381612fb1565b8114612fcd575f80fd5b50565b5f81359050612fde81612fba565b92915050565b5f60208284031215612ff957612ff8612ea8565b5b5f61300684828501612fd0565b91505092915050565b61301881612fb1565b82525050565b5f6020820190506130315f83018461300f565b92915050565b5f819050919050565b61304981613037565b82525050565b5f6020820190506130625f830184613040565b92915050565b5f73ffffffffffffffffffffffffffffffffffffffff82169050919050565b5f61309182613068565b9050919050565b6130a181613087565b81146130ab575f80fd5b50565b5f813590506130bc81613098565b92915050565b5f80604083850312156130d8576130d7612ea8565b5b5f6130e585828601612fd0565b92505060206130f6858286016130ae565b9150509250929050565b61310981613037565b8114613113575f80fd5b50565b5f8135905061312481613100565b92915050565b5f6020828403121561313f5761313e612ea8565b5b5f61314c84828501613116565b91505092915050565b5f80fd5b5f80fd5b5f601f19601f8301169050919050565b7f4e487b71000000000000000000000000000000000000000000000000000000005f52604160045260245ffd5b6131a38261315d565b810181811067ffffffffffffffff821117156131c2576131c161316d565b5b80604052505050565b5f6131d4612e9f565b90506131e0828261319a565b919050565b5f67ffffffffffffffff8211156131ff576131fe61316d565b5b6132088261315d565b9050602081019050919050565b828183375f83830152505050565b5f613235613230846131e5565b6131cb565b90508281526020810184848401111561325157613250613159565b5b61325c848285613215565b509392505050565b5f82601f83011261327857613277613155565b5b8135613288848260208601613223565b91505092915050565b5f67ffffffffffffffff8211156132ab576132aa61316d565b5b602082029050602081019050919050565b5f80fd5b5f6132d26132cd84613291565b6131cb565b905080838252602082019050602084028301858111156132f5576132f46132bc565b5b835b8181101561331e578061330a8882613116565b8452602084019350506020810190506132f7565b5050509392505050565b5f82601f83011261333c5761333b613155565b5b813561334c8482602086016132c0565b91505092915050565b5f806040838503121561336b5761336a612ea8565b5b5f83013567ffffffffffffffff81111561338857613387612eac565b5b61339485828601613264565b925050602083013567ffffffffffffffff8111156133b5576133b4612eac565b5b6133c185828601613328565b9150509250929050565b5f80fd5b5f8083601f8401126133e4576133e3613155565b5b8235905067ffffffffffffffff811115613401576134006133cb565b5b60208301915083602082028301111561341d5761341c6132bc565b5b9250929050565b5f805f6040848603121561343b5761343a612ea8565b5b5f61344886828701613116565b935050602084013567ffffffffffffffff81111561346957613468612eac565b5b613475868287016133cf565b92509250509250925092565b5f6020828403121561349657613495612ea8565b5b5f6134a3848285016130ae565b91505092915050565b5f602082840312156134c1576134c0612ea8565b5b5f82013567ffffffffffffffff8111156134de576134dd612eac565b5b6134ea84828501613264565b91505092915050565b5f6060820190506135065f830186613040565b6135136020830185613040565b6135206040830184613040565b949350505050565b5f806040838503121561353e5761353d612ea8565b5b5f61354b85828601613116565b925050602083013567ffffffffffffffff81111561356c5761356b612eac565b5b61357885828601613328565b9150509250929050565b5f6060820190506135955f830186613040565b6135a26020830185613040565b6135af6040830184612f3b565b949350505050565b6135c081613087565b82525050565b5f6020820190506135d95f8301846135b7565b92915050565b7f4e487b71000000000000000000000000000000000000000000000000000000005f52602160045260245ffd5b6005811061361d5761361c6135df565b5b50565b5f81905061362d8261360c565b919050565b5f61363c82613620565b9050919050565b61364c81613632565b82525050565b60058110613663576136626135df565b5b50565b5f81905061367382613652565b919050565b5f61368282613666565b9050919050565b61369281613678565b82525050565b5f60e0820190506136ab5f83018a613040565b6136b860208301896135b7565b6136c560408301886135b7565b6136d26060830187613643565b6136df6080830186613040565b6136ec60a0830185613040565b6136f960c0830184613689565b98975050505050505050565b5f81519050919050565b5f82825260208201905092915050565b5f5b8381101561373c578082015181840152602081019050613721565b5f8484015250505050565b5f61375182613705565b61375b818561370f565b935061376b81856020860161371f565b6137748161315d565b840191505092915050565b5f6080820190506137925f830187613040565b81810360208301526137a48186613747565b90506137b36040830185613040565b6137c06060830184612f3b565b95945050505050565b5f80604083850312156137df576137de612ea8565b5b5f83013567ffffffffffffffff8111156137fc576137fb612eac565b5b61380885828601613264565b925050602061381985828601613116565b9150509250929050565b5f806040838503121561383957613838612ea8565b5b5f61384685828601613116565b925050602061385785828601613116565b9150509250929050565b61386a81612f30565b8114613874575f80fd5b50565b5f8135905061388581613861565b92915050565b5f80604083850312156138a1576138a0612ea8565b5b5f6138ae85828601613116565b92505060206138bf85828601613877565b9150509250929050565b600581106138d5575f80fd5b50565b5f813590506138e6816138c9565b92915050565b5f805f6060848603121561390357613902612ea8565b5b5f613910868287016130ae565b9350506020613921868287016138d8565b925050604061393286828701613116565b9150509250925092565b5f806040838503121561395257613951612ea8565b5b5f61395f85828601613116565b9250506020613970858286016130ae565b9150509250929050565b7f557365722068617320616c72656164792063686f73656e206120726f6c6500005f82015250565b5f6139ae601e8361370f565b91506139b98261397a565b602082019050919050565b5f6020820190508181035f8301526139db816139a2565b9050919050565b7f496e76616c696420726f6c652063686f696365000000000000000000000000005f82015250565b5f613a1660138361370f565b9150613a21826139e2565b602082019050919050565b5f6020820190508181035f830152613a4381613a0a565b9050919050565b7f43616c6c6572206973206e6f742061207472616e73706f7274657200000000005f82015250565b5f613a7e601b8361370f565b9150613a8982613a4a565b602082019050919050565b5f6020820190508181035f830152613aab81613a72565b9050919050565b7f5472616e73706f72742072657175657374206e6f7420696e207472616e7369745f8201527f2073746174650000000000000000000000000000000000000000000000000000602082015250565b5f613b0c60268361370f565b9150613b1782613ab2565b604082019050919050565b5f6020820190508181035f830152613b3981613b00565b9050919050565b7f43616c6c6572206973206e6f74206120686572646572000000000000000000005f82015250565b5f613b7460168361370f565b9150613b7f82613b40565b602082019050919050565b5f6020820190508181035f830152613ba181613b68565b9050919050565b7f48657264657220616c726561647920726567697374657265642e0000000000005f82015250565b5f613bdc601a8361370f565b9150613be782613ba8565b602082019050919050565b5f6020820190508181035f830152613c0981613bd0565b9050919050565b7f4e487b71000000000000000000000000000000000000000000000000000000005f52601160045260245ffd5b5f613c4782613037565b91507fffffffffffffffffffffffffffffffffffffffffffffffffffffffffffffffff8203613c7957613c78613c10565b5b600182019050919050565b5f81905092915050565b5f613c9882613705565b613ca28185613c84565b9350613cb281856020860161371f565b80840191505092915050565b5f613cc98284613c8e565b915081905092915050565b7f496e76616c6964206c6f636174696f6e000000000000000000000000000000005f82015250565b5f613d0860108361370f565b9150613d1382613cd4565b602082019050919050565b5f6020820190508181035f830152613d3581613cfc565b9050919050565b7f4e487b71000000000000000000000000000000000000000000000000000000005f52602260045260245ffd5b5f6002820490506001821680613d8057607f821691505b602082108103613d9357613d92613d3c565b5b50919050565b5f819050815f5260205f209050919050565b5f6020601f8301049050919050565b5f82821b905092915050565b5f60088302613df57fffffffffffffffffffffffffffffffffffffffffffffffffffffffffffffffff82613dba565b613dff8683613dba565b95508019841693508086168417925050509392505050565b5f819050919050565b5f613e3a613e35613e3084613037565b613e17565b613037565b9050919050565b5f819050919050565b613e5383613e20565b613e67613e5f82613e41565b848454613dc6565b825550505050565b5f90565b613e7b613e6f565b613e86818484613e4a565b505050565b5b81811015613ea957613e9e5f82613e73565b600181019050613e8c565b5050565b601f821115613eee57613ebf81613d99565b613ec884613dab565b81016020851015613ed7578190505b613eeb613ee385613dab565b830182613e8b565b50505b505050565b5f82821c905092915050565b5f613f0e5f1984600802613ef3565b1980831691505092915050565b5f613f268383613eff565b9150826002028217905092915050565b613f3f82613705565b67ffffffffffffffff811115613f5857613f5761316d565b5b613f628254613d69565b613f6d828285613ead565b5f60209050601f831160018114613f9e575f8415613f8c578287015190505b613f968582613f1b565b865550613ffd565b601f198416613fac86613d99565b5f5b82811015613fd357848901518255600182019150602085019450602081019050613fae565b86831015613ff05784890151613fec601f891682613eff565b8355505b6001600288020188555050505b505050505050565b7f4f72646572206d75737420626520696e207472616e73697400000000000000005f82015250565b5f61403960188361370f565b915061404482614005565b602082019050919050565b5f6020820190508181035f8301526140668161402d565b9050919050565b7f4f6e6c79207468652062757965722063616e20636f6e6669726d2064656c69765f8201527f6572790000000000000000000000000000000000000000000000000000000000602082015250565b5f6140c760238361370f565b91506140d28261406d565b604082019050919050565b5f6020820190508181035f8301526140f4816140bb565b9050919050565b5f82825260208201905092915050565b5f80fd5b82818337505050565b5f61412383856140fb565b93507f07ffffffffffffffffffffffffffffffffffffffffffffffffffffffffffffff8311156141565761415561410b565b5b60208302925061416783858461410f565b82840190509392505050565b5f6020820190508181035f83015261418c818486614118565b90509392505050565b7f4f6e6c79206275796572206f722073656c6c65722063616e2063616e63656c005f82015250565b5f6141c9601f8361370f565b91506141d482614195565b602082019050919050565b5f6020820190508181035f8301526141f6816141bd565b9050919050565b7f4f72646572206973206e6f742070656e64696e670000000000000000000000005f82015250565b5f61423160148361370f565b915061423c826141fd565b602082019050919050565b5f6020820190508181035f83015261425e81614225565b9050919050565b7f43616c6c6572206973206e6f742061206d61726b6574000000000000000000005f82015250565b5f61429960168361370f565b91506142a482614265565b602082019050919050565b5f6020820190508181035f8301526142c68161428d565b9050919050565b7f4d61726b657420616c726561647920726567697374657265642e0000000000005f82015250565b5f614301601a8361370f565b915061430c826142cd565b602082019050919050565b5f6020820190508181035f83015261432e816142f5565b9050919050565b7f43616c6c6572206973206e6f74206120736c61756768746572686f75736500005f82015250565b5f614369601e8361370f565b915061437482614335565b602082019050919050565b5f6020820190508181035f8301526143968161435d565b9050919050565b7f536c61756768746572686f75736520616c7265616479207265676973746572655f8201527f642e000000000000000000000000000000000000000000000000000000000000602082015250565b5f6143f760228361370f565b91506144028261439d565b604082019050919050565b5f6020820190508181035f830152614424816143eb565b9050919050565b7f5472616e73706f7274657220616c726561647920726567697374657265642e005f82015250565b5f61445f601f8361370f565b915061446a8261442b565b602082019050919050565b5f6020820190508181035f83015261448c81614453565b9050919050565b7f43616c6c6572206973206e6f7420616e20696e646976696475616c00000000005f82015250565b5f6144c7601b8361370f565b91506144d282614493565b602082019050919050565b5f6020820190508181035f8301526144f4816144bb565b9050919050565b7f496e646976696475616c20616c726561647920726567697374657265642e00005f82015250565b5f61452f601e8361370f565b915061453a826144fb565b602082019050919050565b5f6020820190508181035f83015261455c81614523565b9050919050565b7f4f6e6c79207468652073656c6c65722063616e20636f6e6669726d20746865205f8201527f6f72646572000000000000000000000000000000000000000000000000000000602082015250565b5f6145bd60258361370f565b91506145c882614563565b604082019050919050565b5f6020820190508181035f8301526145ea816145b1565b9050919050565b7f4f72646572206973206e6f742070656e64696e672e00000000000000000000005f82015250565b5f61462560158361370f565b9150614630826145f1565b602082019050919050565b5f6020820190508181035f83015261465281614619565b9050919050565b7f53656c6c6572206973206e6f74206120726567697374657265642068657264655f8201527f722e000000000000000000000000000000000000000000000000000000000000602082015250565b5f6146b360228361370f565b91506146be82614659565b604082019050919050565b5f6020820190508181035f8301526146e0816146a7565b9050919050565b7f43616e6e6f7420706c61636520616e206f72646572207769746820796f7572735f8201527f656c662e00000000000000000000000000000000000000000000000000000000602082015250565b5f61474160248361370f565b915061474c826146e7565b604082019050919050565b5f6020820190508181035f83015261476e81614735565b9050919050565b7f4e6f7420656e6f756768206c69766573746f636b20617661696c61626c652e005f82015250565b5f6147a9601f8361370f565b91506147b482614775565b602082019050919050565b5f6020820190508181035f8301526147d68161479d565b9050919050565b5f6147e782613037565b91506147f283613037565b925082820261480081613037565b9150828204841483151761481757614816613c10565b5b5092915050565b7f496e636f727265637420457468657220616d6f756e742073656e742e000000005f82015250565b5f614852601c8361370f565b915061485d8261481e565b602082019050919050565b5f6020820190508181035f83015261487f81614846565b9050919050565b7f4f6e6c79207468652062757965722063616e2072657175657374207472616e735f8201527f706f72746174696f6e0000000000000000000000000000000000000000000000602082015250565b5f6148e060298361370f565b91506148eb82614886565b604082019050919050565b5f6020820190508181035f83015261490d816148d4565b9050919050565b7f4f72646572206e6f7420636f6e6669726d6564207965740000000000000000005f82015250565b5f61494860178361370f565b915061495382614914565b602082019050919050565b5f6020820190508181035f8301526149758161493c565b9050919050565b7f4e487b71000000000000000000000000000000000000000000000000000000005f52601260045260245ffd5b5f6149b382613037565b91506149be83613037565b9250826149ce576149cd61497c565b5b828204905092915050565b7f4e487b71000000000000000000000000000000000000000000000000000000005f52603260045260245ffd5b5f614a1082613037565b9150614a1b83613037565b9250828201905080821115614a3357614a32613c10565b5b92915050565b5f604082019050614a4c5f8301856135b7565b614a59602083018461300f565b939250505056fea2646970667358221220bc2f1c1827bd5918c791df6ef09f82724dabb4439aadfcca858cd3fdb8be404e64736f6c63430008160033",
  "immutableReferences": {},
  "source": "// SPDX-License-Identifier: MIT\npragma solidity ^0.8.22;\n\nimport \"@openzeppelin/contracts/access/Ownable.sol\";\nimport \"@openzeppelin/contracts/access/AccessControl.sol\";\n\n\ncontract Supplychain is Ownable, AccessControl {\n\n    // Define roles with the AccessControl framework\n    bytes32 public constant HERDER_ROLE = keccak256(\"HERDER\");\n    bytes32 public constant SLAUGHTERHOUSE_ROLE = keccak256(\"SLAUGHTERHOUSE\");\n    bytes32 public constant TRANSPORTER_ROLE = keccak256(\"TRANSPORTER\");\n    bytes32 public constant MARKET_ROLE = keccak256(\"MARKET\");\n    bytes32 public constant INDIVIDUAL_ROLE = keccak256(\"INDIVIDUAL\");\n\n    // Define enums with consistent naming\n    enum LivestockType { SHEEP, GOAT, BEEF, CAMEL, HORSE }\n    enum OrderStatus { PENDING, CONFIRMED, IN_TRANSIT, COMPLETED, CANCELED }\n    enum RoleChoice { Herder, Slaughterhouse, Transporter, Market, Individual }\n\n    // Counter for generating unique IDs\n    uint256 private herderIdCounter = 1;\n    \n    // Define structs for each stakeholder\n    struct Herder {\n        uint256 id;\n        string location;\n        uint256 grade;\n        mapping(LivestockType => uint256) livestockInventory;\n        mapping(LivestockType => uint256) pricePerKg;\n        bool registered;\n    }\n    \n    struct Slaughterhouse {\n        uint256 id;\n        uint256 location;\n        uint256[] pricePerKg;\n        bool registered;\n    }\n    \n    struct Transporter {\n        uint256 id;\n        string truckInfo;\n        uint256 pricePerKm;\n        bool registered;\n    }\n    \n    struct Market {\n        uint256 id;\n        uint256 location;\n        uint256[] pricePerKg;\n        bool registered;\n    }\n    \n    struct Individual {\n        uint256 id;\n        uint256 location;\n        bool registered;\n    }\n\n    // Define struct for orders\n    struct Order {\n        uint256 id;\n        address buyer;\n        address seller;\n        LivestockType livestockType;\n        uint256 quantity;\n        uint256 price;\n        OrderStatus status;\n    }\n    // Structure to hold Aimag data\n    struct Aimag {\n        uint256 pastureCarryingCapacity;\n        uint256 totalLivestockNumber;\n        uint256 totalHerderNumber;\n    }\n    \n    // Define events with parameters\n    event RegisteredHerder(uint256 indexed herderId, uint256 grade);\n    event OrderPlaced(uint256 indexed orderId, address indexed buyer, uint256 amount);\n    event OrderConfirmed(uint256 indexed orderId);\n    event TransportationRequested(uint256 indexed orderId, address indexed transporter);\n    event DeliveryConfirmed(uint256 indexed orderId);\n    event LivestockPickedUp(uint256 indexed orderId, uint256 quantityPickedUp);\n    event PaymentMade(uint256 indexed orderId, uint256 amount);\n    event LivestockDelivered(uint256 indexed orderId, uint256[] earTagNumbers);\n    event OrderCanceled(uint256 indexed orderId);\n    \n    // Define state variables\n    mapping(uint256 => Herder) public herders;\n    mapping(address => Slaughterhouse) public slaughterhouses;\n    mapping(address => Transporter) public transporters;\n    mapping(address => Market) public markets;\n    mapping(address => Individual) public individuals;\n    mapping(uint256 => Order) public orders;\n    mapping(uint256 => uint256) public escrowedFunds;\n    // Mapping to hold the data for each Aimag\n    mapping(string => Aimag) public aimags;\n    // Mapping to link an Ethereum address with its numerical herder ID\n    mapping(address => uint256) public herderAddressToId;\n    mapping(address => bool) public hasChosenRole;\n    \n    uint256 public nextOrderId = 1;\n\n    // Modifiers for access control\n    modifier onlyHerder() {\n        require(hasRole(HERDER_ROLE, msg.sender), \"Caller is not a herder\");\n        _;\n    }\n\n    modifier onlySlaughterhouse() {\n        require(hasRole(SLAUGHTERHOUSE_ROLE, msg.sender), \"Caller is not a slaughterhouse\");\n        _;\n    }\n    \n    modifier onlyTransporter() {\n        require(hasRole(TRANSPORTER_ROLE, msg.sender), \"Caller is not a transporter\");\n        _;\n    }\n\n    modifier onlyMarket() {\n        require(hasRole(MARKET_ROLE, msg.sender), \"Caller is not a market\");\n        _;\n    }\n    \n    modifier onlyIndividual() {\n        require(hasRole(INDIVIDUAL_ROLE, msg.sender), \"Caller is not an individual\");\n        _;\n    }\n\n    // Constructor to initialize the Aimag data\n    constructor() Ownable(msg.sender) {\n        // Set the deployer as the admin role\n        _grantRole(DEFAULT_ADMIN_ROLE, msg.sender);\n\n        // Initialize Aimag data\n        initializeAimagData();\n    }\n\n    // Function to initialize Aimag data\n    function initializeAimagData() internal {\n        aimags[\"Zavhan\"] = Aimag(3607000, 3721060, 9860);\n        aimags[\"Gobi-Altai\"] = Aimag(2780000, 3167470, 8140);\n        aimags[\"Bayan-Ulgii\"] = Aimag(854600, 2255810, 10160);\n        aimags[\"Khovd\"] = Aimag(758000, 3472850, 8530);\n        aimags[\"Uvs\"] = Aimag(1128000, 3513850, 9960);\n        aimags[\"Orkhon\"] = Aimag(170000, 169940, 980);\n        aimags[\"Uvurkhangai\"] = Aimag(4120000, 4589390, 17830);\n        aimags[\"Bulgan\"] = Aimag(3950100, 3892840, 9060);\n        aimags[\"Bayankhongor\"] = Aimag(725000, 3719590, 13110);\n        aimags[\"Arkhangai\"] = Aimag(1910100, 5886090, 16170);\n        aimags[\"Khuvsgul\"] = Aimag(6478500, 6254100, 19540);\n        aimags[\"Tuv\"] = Aimag(5103000, 5107700, 13420);\n        aimags[\"Gobi-Sumber\"] = Aimag(521150, 464290, 800);\n        aimags[\"Selenge\"] = Aimag(2860300, 1912340, 5540);\n        aimags[\"Dornogobi\"] = Aimag(1620000, 2909700, 4650);\n        aimags[\"Darkhan-Uul\"] = Aimag(575600, 313210, 1230);\n        aimags[\"Umnugobi\"] = Aimag(517000, 2637330, 6580);\n        aimags[\"Dundgobi\"] = Aimag(2150600, 3626370, 7680);\n        aimags[\"Dornod\"] = Aimag(4926000, 3342320, 6160);\n        aimags[\"Sukhbaatar\"] = Aimag(5120300, 4644800, 8950);\n        aimags[\"Khentii\"] = Aimag(5100020, 5076550, 9100);\n        aimags[\"Ulaanbaatar\"] = Aimag(417030, 442840, 3310);\n    }\n    // Function for users to choose a role\n    function chooseRole(RoleChoice choice) public {\n        require(!hasChosenRole[msg.sender], \"User has already chosen a role\");\n\n        bytes32 role;\n        if (choice == RoleChoice.Herder) {\n            role = HERDER_ROLE;\n        } else if (choice == RoleChoice.Slaughterhouse) {\n            role = SLAUGHTERHOUSE_ROLE;\n        } else if (choice == RoleChoice.Transporter) {\n            role = TRANSPORTER_ROLE;\n        } else if (choice == RoleChoice.Market) {\n            role = MARKET_ROLE;\n        } else if (choice == RoleChoice.Individual) {\n            role = INDIVIDUAL_ROLE;\n        } else {\n            revert(\"Invalid role choice\");\n        }\n\n        _grantRole(role, msg.sender);\n        hasChosenRole[msg.sender] = true;\n    }\n    \n    // Functions for each stakeholder to register themselves\n    // Function to register a herder\n    function registerHerder(string memory locationKey, uint256[] memory livestockByType) public {\n        require(hasRole(HERDER_ROLE, msg.sender), \"Caller is not a herder\");\n        require(herderAddressToId[msg.sender] == 0, \"Herder already registered.\");\n\n    // Use the counter to assign a new unique ID\n    uint256 herderId = herderIdCounter++;\n\n    // Retrieve the Aimag data\n    Aimag storage aimag = aimags[locationKey];\n    require(aimag.pastureCarryingCapacity > 0, \"Invalid location\");\n\n    // Calculate grade points and grade\n    uint256 gradePoints = calculateGradePoints(aimag, livestockByType);\n    uint256 grade = getGrade(gradePoints);\n\n    // Create and store the new Herder struct\n    Herder storage newHerder = herders[herderId];\n    newHerder.id = herderId;\n    newHerder.location = locationKey;\n    // Assign livestockInventory and pricePerKg based on input arrays\n    // You will need to implement this logic based on how you want to store these values\n    newHerder.grade = grade;\n    newHerder.registered = true;\n\n    // Map the sender's address to the new herder ID\n    herderAddressToId[msg.sender] = herderId;\n\n    // Emit the event with the new herder's information including the grade\n    emit RegisteredHerder(herderId, grade);\n    }\n\n    // Helper function to calculate grade points based on Aimag data\n    function calculateGradePoints(Aimag storage aimag, uint256[] memory livestockByType) internal view returns (uint256) {\n        uint256 pcr = aimag.totalLivestockNumber / aimag.pastureCarryingCapacity;\n        uint256 livestockPerHerder = aimag.pastureCarryingCapacity / (aimag.totalHerderNumber); \n        uint256 totalLivestock = 0;\n        for (uint256 i = 0; i < livestockByType.length; i++) {\n            totalLivestock = totalLivestock + livestockByType[i];\n        }\n        return pcr + (totalLivestock / livestockPerHerder);\n    }\n    // Implement the getGrade function\n    function getGrade(uint256 gradePoints) internal pure returns (uint256) {\n        if (gradePoints <= 2) return 1;\n        if (gradePoints <= 4) return 2;\n        if (gradePoints <= 6) return 3;\n        if (gradePoints <= 8) return 4;\n        return gradePoints <= 10 ? 5 : 6;\n    }\n    function registerSlaughterhouse(uint256 location, uint256[] memory pricePerKg) public {\n        require(hasRole(SLAUGHTERHOUSE_ROLE, msg.sender), \"Caller is not a slaughterhouse\");\n        Slaughterhouse storage sh = slaughterhouses[msg.sender];\n        require(!sh.registered, \"Slaughterhouse already registered.\");\n\n        sh.registered = true;\n        sh.location = location;\n        sh.pricePerKg = pricePerKg;\n    }\n\n    function registerTransporter(string memory truckInfo, uint256 pricePerKm) public {\n        require(hasRole(TRANSPORTER_ROLE, msg.sender), \"Caller is not a transporter\");\n        Transporter storage tr = transporters[msg.sender];\n        require(!tr.registered, \"Transporter already registered.\");\n\n        tr.registered = true;\n        tr.truckInfo = truckInfo;\n        tr.pricePerKm = pricePerKm;\n    }\n    \n    function registerMarket(uint256 location, uint256[] memory pricePerKg) public {\n        require(hasRole(MARKET_ROLE, msg.sender), \"Caller is not a market\");\n        Market storage m = markets[msg.sender];\n        require(!m.registered, \"Market already registered.\");\n\n        m.registered = true;\n        m.location = location;\n        m.pricePerKg = pricePerKg;\n    }\n    \n    function registerIndividual(uint256 location) public {\n        require(hasRole(INDIVIDUAL_ROLE, msg.sender), \"Caller is not an individual\");\n        Individual storage ind = individuals[msg.sender];\n        require(!ind.registered, \"Individual already registered.\");\n\n        ind.registered = true;\n        ind.location = location;\n    }\n\n    // Function to place an order\n    function placeOrder(address seller, LivestockType livestockType, uint256 quantity) public payable {\n         uint256 herderId = herderAddressToId[seller];\n    \n        require(herderId != 0, \"Seller is not a registered herder.\");\n        require(seller != msg.sender, \"Cannot place an order with yourself.\");\n        Herder storage herder = herders[herderId];\n        require(herder.registered, \"Seller is not a registered herder.\");\n        uint256 stockAvailable = herder.livestockInventory[livestockType];\n        require(stockAvailable >= quantity, \"Not enough livestock available.\");\n        uint256 price = herder.pricePerKg[livestockType] * quantity;\n        require(msg.value == price, \"Incorrect Ether amount sent.\");\n\n        escrowedFunds[nextOrderId] = msg.value;\n\n        Order storage newOrder = orders[nextOrderId];\n        newOrder.id = nextOrderId;\n        newOrder.buyer = msg.sender;\n        newOrder.seller = seller;\n        newOrder.livestockType = livestockType;\n        newOrder.quantity = quantity;\n        newOrder.price = price;\n        newOrder.status = OrderStatus.PENDING;\n\n        nextOrderId++;\n\n        emit OrderPlaced(newOrder.id, msg.sender, price);\n    }\n\n    // Function to confirm an order\n    function confirmOrder(uint256 orderId, bool confirm) public onlyHerder {\n        require(orders[orderId].seller == msg.sender, \"Only the seller can confirm the order\");\n        require(orders[orderId].status == OrderStatus.PENDING, \"Order is not pending.\");\n        \n        if (confirm) {\n            orders[orderId].status = OrderStatus.CONFIRMED;\n            emit OrderConfirmed(orderId);\n        } else {\n            orders[orderId].status = OrderStatus.CANCELED;\n            uint256 refund = escrowedFunds[orderId];\n            delete escrowedFunds[orderId];\n            payable(orders[orderId].buyer).transfer(refund);\n            emit OrderCanceled(orderId);\n        }\n    }\n\n    // Function to request transportation\n    function requestTransportation(uint256 orderId, address transporter) public {\n        require(orders[orderId].buyer == msg.sender, \"Only the buyer can request transportation\");\n        require(orders[orderId].status == OrderStatus.CONFIRMED, \"Order not confirmed yet\");\n        \n        orders[orderId].status = OrderStatus.IN_TRANSIT;\n        emit TransportationRequested(orderId, transporter);\n    }\n\n    // Function to confirm delivery request\n    function confirmDeliveryRequest(uint256 orderId) public onlyTransporter {\n        require(orders[orderId].status == OrderStatus.IN_TRANSIT, \"Transport request not in transit state\");\n        emit DeliveryConfirmed(orderId);\n    }\n\n    // Function to confirm pick up\n    function confirmPickUp(uint256 orderId, uint256 quantityPickedUp) public onlyTransporter {\n        require(orders[orderId].status == OrderStatus.IN_TRANSIT, \"Order must be in transit\");\n        emit LivestockPickedUp(orderId, quantityPickedUp);\n    }\n\n    // Function to confirm delivery\n    function confirmDelivery(uint256 orderId, uint256[] calldata earTagNumbers) public {\n        require(orders[orderId].status == OrderStatus.IN_TRANSIT, \"Order must be in transit\");\n        require(orders[orderId].buyer == msg.sender, \"Only the buyer can confirm delivery\");\n        \n        orders[orderId].status = OrderStatus.COMPLETED;\n        uint256 payment = escrowedFunds[orderId];\n        delete escrowedFunds[orderId];\n        payable(orders[orderId].seller).transfer(payment);\n        \n        emit LivestockDelivered(orderId, earTagNumbers);\n    }\n\n    // Function to cancel the order\n    function cancelOrder(uint256 orderId) public {\n        Order storage order = orders[orderId];\n        require(msg.sender == order.seller || msg.sender == order.buyer, \"Only buyer or seller can cancel\");\n        require(order.status == OrderStatus.PENDING, \"Order is not pending\");\n        \n        order.status = OrderStatus.CANCELED;\n        uint256 refund = escrowedFunds[orderId];\n        delete escrowedFunds[orderId];\n        payable(order.buyer).transfer(refund);\n\n        emit OrderCanceled(orderId);\n    }\n\n}\n",
  "sourcePath": "/home/yesui/MyTruffleProject/contracts/Supplychain.sol",
  "compiler": {
    "name": "solc",
    "version": "0.8.22+commit.4fc1097e.Emscripten.clang"
  },
  "schemaVersion": "3.4.16",
  "updatedAt": "2023-11-21T15:04:58.574Z",
  "networkType": "ethereum",
  "devdoc": {
    "errors": {
      "AccessControlBadConfirmation()": [
        {
          "details": "The caller of a function is not the expected one. NOTE: Don't confuse with {AccessControlUnauthorizedAccount}."
        }
      ],
      "AccessControlUnauthorizedAccount(address,bytes32)": [
        {
          "details": "The `account` is missing a role."
        }
      ],
      "OwnableInvalidOwner(address)": [
        {
          "details": "The owner is not a valid owner account. (eg. `address(0)`)"
        }
      ],
      "OwnableUnauthorizedAccount(address)": [
        {
          "details": "The caller account is not authorized to perform an operation."
        }
      ]
    },
    "events": {
      "RoleAdminChanged(bytes32,bytes32,bytes32)": {
        "details": "Emitted when `newAdminRole` is set as ``role``'s admin role, replacing `previousAdminRole` `DEFAULT_ADMIN_ROLE` is the starting admin for all roles, despite {RoleAdminChanged} not being emitted signaling this."
      },
      "RoleGranted(bytes32,address,address)": {
        "details": "Emitted when `account` is granted `role`. `sender` is the account that originated the contract call, an admin role bearer except when using {AccessControl-_setupRole}."
      },
      "RoleRevoked(bytes32,address,address)": {
        "details": "Emitted when `account` is revoked `role`. `sender` is the account that originated the contract call:   - if using `revokeRole`, it is the admin role bearer   - if using `renounceRole`, it is the role bearer (i.e. `account`)"
      }
    },
    "kind": "dev",
    "methods": {
      "getRoleAdmin(bytes32)": {
        "details": "Returns the admin role that controls `role`. See {grantRole} and {revokeRole}. To change a role's admin, use {_setRoleAdmin}."
      },
      "grantRole(bytes32,address)": {
        "details": "Grants `role` to `account`. If `account` had not been already granted `role`, emits a {RoleGranted} event. Requirements: - the caller must have ``role``'s admin role. May emit a {RoleGranted} event."
      },
      "hasRole(bytes32,address)": {
        "details": "Returns `true` if `account` has been granted `role`."
      },
      "owner()": {
        "details": "Returns the address of the current owner."
      },
      "renounceOwnership()": {
        "details": "Leaves the contract without owner. It will not be possible to call `onlyOwner` functions. Can only be called by the current owner. NOTE: Renouncing ownership will leave the contract without an owner, thereby disabling any functionality that is only available to the owner."
      },
      "renounceRole(bytes32,address)": {
        "details": "Revokes `role` from the calling account. Roles are often managed via {grantRole} and {revokeRole}: this function's purpose is to provide a mechanism for accounts to lose their privileges if they are compromised (such as when a trusted device is misplaced). If the calling account had been revoked `role`, emits a {RoleRevoked} event. Requirements: - the caller must be `callerConfirmation`. May emit a {RoleRevoked} event."
      },
      "revokeRole(bytes32,address)": {
        "details": "Revokes `role` from `account`. If `account` had been granted `role`, emits a {RoleRevoked} event. Requirements: - the caller must have ``role``'s admin role. May emit a {RoleRevoked} event."
      },
      "supportsInterface(bytes4)": {
        "details": "See {IERC165-supportsInterface}."
      },
      "transferOwnership(address)": {
        "details": "Transfers ownership of the contract to a new account (`newOwner`). Can only be called by the current owner."
      }
    },
    "version": 1
  },
  "userdoc": {
    "kind": "user",
    "methods": {},
    "version": 1
  }
}